:020000000828CE
:0A0006001F308316850086010800F4
:10001000032083120514051C3E287E30860006301E
:10002000CB001330CC00AD30CD00CD0B1528CC0B60
:100030001528CB0B15280000000030308600063054
:10004000CB001330CC00AD30CD00CD0B2528CC0B30
:100050002528CB0B2528000000006D3086000630D7
:10006000CB001330CC00AD30CD00CD0B3528CC0B00
:100070003528CB0B352800000000EF298514851C9E
:100080007228793086000630CB001330CC00AD30BA
:10009000CD00CD0B4928CC0B4928CB0B49280000BB
:1000A00000000E3086000630CB001330CC00AD309F
:1000B000CD00CD0B5928CC0B5928CB0B592800006B
:1000C00000005B3086000630CB001330CC00AD3032
:1000D000CD00CD0B6928CC0B6928CB0B692800001B
:1000E0000000EF290515051DA6285F3086000630A3
:1000F000CB001330CC00AD30CD00CD0B7D28CC0B28
:100100007D28CB0B7D280000000070308600063073
:10011000CB001330CC00AD30CD00CD0B8D28CC0BF7
:100120008D28CB0B8D28000000007F308600063024
:10013000CB001330CC00AD30CD00CD0B9D28CC0BC7
:100140009D28CB0B9D2800000000EF298515851DFB
:100150004A29733086000630CB001330CC00AD3016
:10016000CD00CD0BB128CC0BB128CB0BB1280000B2
:1001700000007F3086000630CB001330CC00AD305D
:10018000CD00CD0BC128CC0BC128CB0BC128000062
:100190000000703086000630CB001330CC00AD304C
:1001A000CD00CD0BD128CC0BD128CB0BD128000012
:1001B00000005F3086000630CB001330CC00AD303D
:1001C000CD00CD0BE128CC0BE128CB0BE1280000C2
:1001D00000005B3086000630CB001330CC00AD3021
:1001E000CD00CD0BF128CC0BF128CB0BF128000072
:1001F00000000E3086000630CB001330CC00AD304E
:10020000CD00CD0B0129CC0B0129CB0B012900001E
:100210000000793086000630CB001330CC00AD30C2
:10022000CD00CD0B1129CC0B1129CB0B11290000CE
:1002300000006D3086000630CB001330CC00AD30AE
:10024000CD00CD0B2129CC0B2129CB0B212900007E
:100250000000303086000630CB001330CC00AD30CB
:10026000CD00CD0B3129CC0B3129CB0B312900002E
:1002700000007E3086000630CB001330CC00AD305D
:10028000CD00CD0B4129CC0B4129CB0B41290000DE
:100290000000EF290516051EEE297E308600063087
:1002A000CB001330CC00AD30CD00CD0B5529CC0B9D
:1002B0005529CB0B55290000000030308600063050
:1002C000CB001330CC00AD30CD00CD0B6529CC0B6D
:1002D0006529CB0B6529000000006D3086000630D3
:1002E000CB001330CC00AD30CD00CD0B7529CC0B3D
:1002F0007529CB0B75290000000079308600063087
:10030000CB001330CC00AD30CD00CD0B8529CC0B0C
:100310008529CB0B8529000000000E3086000630B1
:10032000CB001330CC00AD30CD00CD0B9529CC0BDC
:100330009529CB0B9529000000005B308600063024
:10034000CB001330CC00AD30CD00CD0BA529CC0BAC
:10035000A529CB0BA529000000005F3086000630E0
:10036000CB001330CC00AD30CD00CD0BB529CC0B7C
:10037000B529CB0BB529000000007030860006308F
:10038000CB001330CC00AD30CD00CD0BC529CC0B4C
:10039000C529CB0BC529000000007F308600063040
:1003A000CB001330CC00AD30CD00CD0BD529CC0B1C
:1003B000D529CB0BD529000000007330860006300C
:1003C000CB001330CC00AD30CD00CD0BE529CC0BEC
:1003D000E529CB0BE52900000000EF29860109285B
:0203E000F02902
:02400E00FA3F77
:00000001FF
